{
  "contractName": "DiceGame",
  "abi": [
    {
      "constant": true,
      "inputs": [],
      "name": "totalAmount",
      "outputs": [
        {
          "name": "",
          "type": "uint256"
        }
      ],
      "payable": false,
      "stateMutability": "view",
      "type": "function"
    },
    {
      "constant": true,
      "inputs": [],
      "name": "diceResult",
      "outputs": [
        {
          "name": "",
          "type": "uint256"
        }
      ],
      "payable": false,
      "stateMutability": "view",
      "type": "function"
    },
    {
      "constant": true,
      "inputs": [
        {
          "name": "",
          "type": "address"
        }
      ],
      "name": "bets",
      "outputs": [
        {
          "name": "amount",
          "type": "uint256"
        },
        {
          "name": "isSmall",
          "type": "bool"
        },
        {
          "name": "hasBet",
          "type": "bool"
        }
      ],
      "payable": false,
      "stateMutability": "view",
      "type": "function"
    },
    {
      "constant": true,
      "inputs": [],
      "name": "owner",
      "outputs": [
        {
          "name": "",
          "type": "address"
        }
      ],
      "payable": false,
      "stateMutability": "view",
      "type": "function"
    },
    {
      "inputs": [],
      "payable": false,
      "stateMutability": "nonpayable",
      "type": "constructor"
    },
    {
      "anonymous": false,
      "inputs": [
        {
          "indexed": true,
          "name": "player",
          "type": "address"
        },
        {
          "indexed": false,
          "name": "amount",
          "type": "uint256"
        },
        {
          "indexed": false,
          "name": "isSmall",
          "type": "bool"
        }
      ],
      "name": "BetPlaced",
      "type": "event"
    },
    {
      "anonymous": false,
      "inputs": [
        {
          "indexed": false,
          "name": "result",
          "type": "uint256"
        }
      ],
      "name": "DiceRolled",
      "type": "event"
    },
    {
      "constant": false,
      "inputs": [
        {
          "name": "_isSmall",
          "type": "bool"
        }
      ],
      "name": "placeBet",
      "outputs": [],
      "payable": true,
      "stateMutability": "payable",
      "type": "function"
    },
    {
      "constant": false,
      "inputs": [],
      "name": "rollDice",
      "outputs": [],
      "payable": false,
      "stateMutability": "nonpayable",
      "type": "function"
    }
  ],
  "bytecode": "0x6060604052341561000f57600080fd5b33600360006101000a81548173ffffffffffffffffffffffffffffffffffffffff021916908373ffffffffffffffffffffffffffffffffffffffff1602179055506106df8061005f6000396000f300606060405260043610610078576000357c0100000000000000000000000000000000000000000000000000000000900463ffffffff168063096a37781461007d5780631a39d8ef146100975780631ee7a01c146100c0578063837e7cc6146100e957806389a78f1a146100fe5780638da5cb5b14610161575b600080fd5b610095600480803515159060200190919050506101b6565b005b34156100a257600080fd5b6100aa610336565b6040518082815260200191505060405180910390f35b34156100cb57600080fd5b6100d361033c565b6040518082815260200191505060405180910390f35b34156100f457600080fd5b6100fc610342565b005b341561010957600080fd5b610135600480803573ffffffffffffffffffffffffffffffffffffffff16906020019091905050610418565b604051808481526020018315151515815260200182151515158152602001935050505060405180910390f35b341561016c57600080fd5b61017461045c565b604051808273ffffffffffffffffffffffffffffffffffffffff1673ffffffffffffffffffffffffffffffffffffffff16815260200191505060405180910390f35b60003411801561021257506000803373ffffffffffffffffffffffffffffffffffffffff1673ffffffffffffffffffffffffffffffffffffffff16815260200190815260200160002060010160019054906101000a900460ff16155b151561021d57600080fd5b6060604051908101604052803481526020018215158152602001600115158152506000803373ffffffffffffffffffffffffffffffffffffffff1673ffffffffffffffffffffffffffffffffffffffff1681526020019081526020016000206000820151816000015560208201518160010160006101000a81548160ff02191690831515021790555060408201518160010160016101000a81548160ff021916908315150217905550905050346001600082825401925050819055503373ffffffffffffffffffffffffffffffffffffffff167ff8e99859e696debf4ef1752d671f759f7f63a1116efe995d789edfb3849c3549348360405180838152602001821515151581526020019250505060405180910390a250565b60015481565b60025481565b600360009054906101000a900473ffffffffffffffffffffffffffffffffffffffff1673ffffffffffffffffffffffffffffffffffffffff163373ffffffffffffffffffffffffffffffffffffffff1614151561039e57600080fd5b60016006424460405180838152602001828152602001925050506040518091039020600190048115156103cd57fe5b06016002819055507f0c720560a539b13f97fb22b6c1ac4393045cedca3bb997fd2ea1f7a3dfb76a586002546040518082815260200191505060405180910390a1610416610482565b565b60006020528060005260406000206000915090508060000154908060010160009054906101000a900460ff16908060010160019054906101000a900460ff16905083565b600360009054906101000a900473ffffffffffffffffffffffffffffffffffffffff1681565b600080600080600360025411159350600092505b60068310156106a557600183600360009054906101000a900473ffffffffffffffffffffffffffffffffffffffff1673ffffffffffffffffffffffffffffffffffffffff16010191506000808373ffffffffffffffffffffffffffffffffffffffff1673ffffffffffffffffffffffffffffffffffffffff16815260200190815260200160002060010160019054906101000a900460ff16801561058b57508315156000808473ffffffffffffffffffffffffffffffffffffffff1673ffffffffffffffffffffffffffffffffffffffff16815260200190815260200160002060010160009054906101000a900460ff161515145b1561062757600234026001546000808573ffffffffffffffffffffffffffffffffffffffff1673ffffffffffffffffffffffffffffffffffffffff16815260200190815260200160002060000154028115156105e357fe5b0490508173ffffffffffffffffffffffffffffffffffffffff166108fc829081150290604051600060405180830381858888f19350505050151561062657600080fd5b5b6000808373ffffffffffffffffffffffffffffffffffffffff1673ffffffffffffffffffffffffffffffffffffffff1681526020019081526020016000206000808201600090556001820160006101000a81549060ff02191690556001820160016101000a81549060ff021916905550508280600101935050610496565b6000600181905550505050505600a165627a7a723058200ca4e7ba1dbd2d668f3563b89eb531551bf4d3328b8f3cca0ca20669ba32b2e10029",
  "source": "pragma solidity ^0.4.20;\r\n\r\ncontract DiceGame {\r\n    // Structure representing the bet and choice of each participant\r\n    struct Bet {\r\n        uint amount; // Amount of the bet\r\n        bool isSmall; // Whether the participant chose 'small'\r\n        bool hasBet; // Whether the participant has placed a bet\r\n    }\r\n\r\n    mapping(address => Bet) public bets; // Record of bets placed by participants\r\n    uint public totalAmount; // Total amount of bets\r\n    uint public diceResult; // Result of the dice roll\r\n    address public owner; // Owner of the contract\r\n\r\n    event BetPlaced(address indexed player, uint amount, bool isSmall);\r\n    event DiceRolled(uint result);\r\n\r\n    // Constructor\r\n    function DiceGame() public {\r\n        owner = msg.sender;\r\n    }\r\n\r\n    // Function for placing a bet\r\n    function placeBet(bool _isSmall) payable public {\r\n        require(msg.value > 0 && !bets[msg.sender].hasBet); // Ensure the bet amount is greater than 0 and the participant hasn't placed a bet\r\n        bets[msg.sender] = Bet(msg.value, _isSmall, true); // Record the bet information\r\n        totalAmount += msg.value; // Update the total amount of bets\r\n        BetPlaced(msg.sender, msg.value, _isSmall); // Trigger the bet event\r\n    }\r\n\r\n    // Function for rolling the dice\r\n    function rollDice() public {\r\n        require(msg.sender == owner); // Only the contract owner can execute this function\r\n        diceResult = (uint(keccak256(block.timestamp, block.difficulty)) % 6) + 1; // Generate a random number between 1 and 6\r\n        DiceRolled(diceResult); // Trigger the dice roll event\r\n        distributePrizes(); // Distribute the prizes\r\n    }\r\n\r\n    // Function for distributing prizes\r\n    function distributePrizes() private {\r\n        bool isSmall = diceResult <= 3; // Check if the result is 'small'\r\n        for (uint i = 0; i < 6; i++) {\r\n            address player = address(uint(owner) + i + 1); // Infer the participant's address from the address\r\n            if (bets[player].hasBet && bets[player].isSmall == isSmall) {\r\n                uint prize = (bets[player].amount * totalAmount) / (msg.value * 2); // Calculate the prize\r\n                player.transfer(prize); // Send the prize\r\n            }\r\n            delete bets[player]; // Clear the participant's bet record\r\n        }\r\n        totalAmount = 0; // Reset the total amount of bets\r\n    }\r\n}\r\n",
  "sourcePath": "G:\\election\\contracts\\DiceGame.sol",
  "compiler": {
    "name": "solc",
    "version": "0.4.20+commit.3155dd80.Emscripten.clang"
  },
  "schemaVersion": "3.4.16",
  "updatedAt": "2024-05-04T05:52:25.244Z",
  "devdoc": {
    "methods": {}
  },
  "userdoc": {
    "methods": {}
  }
}